:020000040000FA
:10000000A81620208D01000091010000930100003E
:1000100000000000000000000000000000000000E0
:10002000000000000000000000000000950100003A
:10003000000000000000000097010000990100008E
:100040009B010000B11400009B0100009B01000017
:100050009B0100009B0100009B0100009B01000030
:10006000000000009B0100009B0100000000000058
:10007000000000009B0100009B010000A91A000085
:100080007D1A00009B0100005D1A00009B0100002A
:100090009B0100009B010000000000000000000028
:1000A0009B0100009B010000000000000000000018
:1000B0009B010000000000009B0100009B0100006C
:1000C00000F002F800F052F812A030C808382418E6
:1000D0002D18AC4201D100F049F80FCCA246AB4636
:1000E0000CA730CF2D1B083F3F197C427F1E544484
:1000F0002D090426F441641EAC4201D300F036F809
:100100000126334200D0FB1A3343984754465D46DC
:10011000DFE7000044260000642600000000000025
:10012000103A02D378C878C1FAD8520701D330C840
:1001300030C101D504680C60704700000000000069
:100140007047000000000000002300240025002666
:10015000103A01D378C1FBD8520700D330C100D583
:100160000B6070471FB51FBD10B510BD00F002FF3A
:100170001146FFF7F7FF01F033FD00F01AFF03B45B
:10018000FFF7F2FF03BC01F0DDFC0000064800476A
:10019000FEE7FEE7FEE7FEE7FEE7FEE70348044969
:1001A000044A054B70470000C1000000A80220204F
:1001B000A8162020A8122020A812202070477047DF
:1001C000704700000246C80FC00781434B0030B59E
:1001D0004B405B009B0D20D01923DB06C91801237F
:1001E0001B05994220DB0324A40704251346AB40DA
:1001F0000BD3002B04D1EB0613409B00E34204D445
:1002000001246407002312195941FF231B05994259
:100210000BD2C9000143500F09E0CB0204D50143C2
:100220000803024305D0054830BDFF21C905084336
:1002300030BD084607210905884330BD0000C07F56
:10024000F0B50C46871A9C410D46861A9D4103D293
:10025000C01BA141D21963410D0D1F0DC94EEC1BEE
:10026000AE435CD07F057F0D0026002F51D02D05B9
:10027000AC46A943DD020123ED0A1B051D432023E3
:100280001B1B24D41746E740381871412F46E7401E
:10029000CC199D402818314661410C0D27D161448D
:1002A0009A4013D50023401C594152000ED14008FA
:1002B000400001224B005205D34207D305204007DE
:1002C000C14201D5B04900E0B0493046F0BD6B00F5
:1002D000002A00D001229A181F23203C1B1B01D5A5
:1002E000002302E0E540281871410C0DD7D001240D
:1002F00024050919C407CD0740084908E40F28431D
:100300006144002CD5D00024401C61419A40D0D1DA
:10031000CDE76A05520DD9D1C90FC907D5E79C4D64
:100320004E00002801D0012400E0002434195F00B1
:10033000002A01D0012600E00026BE19954FAC42EC
:100340000CD8AE420AD8B44206D001256D05EC4265
:10035000BCD010461946F0BD9942FCD00020394669
:10036000F0BDF0B51FB40C460F46811A9F412546DB
:10037000861A9D4106D20125ED076F40401ABC4107
:1003800052187B41210D1E0D8D1BAC467D4D8D43BA
:100390007ED075056D0D7CD00D05AE46AC431B03BC
:1003A0001B0B794D52429D41202366469B1B14D363
:1003B0001746F740381800260090744160462F46D3
:1003C0000741E41900989D402818664116D47146EB
:1003D00071189A4025D5012320E093182A466A41D6
:1003E0005200002B00D0521C1E23203E9B1B002BD2
:1003F00061DD3541EE1728186641E8D500187641D1
:100400005B1C9A4000D3401C4B05F3181524E340B5
:1004100010D3002B52D071467118D30FC01802D3DD
:10042000491C05B0F0BD0123DB079A42F9D1400811
:100430004000F6E701225205B21801D1002853D03E
:100440000123CC0ADB029943891E002A08D1020C41
:1004500003D0020C0004103902E0024600202039CB
:100460000023550B05D112020823550B01D152016F
:100470000D23550C01D112011B1DD50C01D1920089
:100480009B1C150D01D152005B1C2025EE1A01E0CA
:100490002CE022E00546F54015439840CA1AE107D2
:1004A00069181305C918002ABBDA03204007081889
:1004B000C10FC9070FE071466118B2E7F1074008A4
:1004C0000843711071444A000CD001235B059A4225
:1004D000A7D2C90FC9070020A3E74905490D26D1B6
:1004E000002001E00028F4D100219AE7284D6600A1
:1004F000002801D0012100E0002171185F00002ACE
:1005000001D0012600E00026BE19224FA94210D8D2
:10051000AE420ED8B14208D001256D05E94206D0A1
:100520001946A802414010467BE79C4201D0214673
:1005300077E70020394674E710B50C465C4005D5D6
:100540000124E4076340FFF70CFF10BDFFF778FEBE
:1005500010BD30B40C465C4004D50124E407634070
:1005600030BC6DE630BCFCE670B50124E4076140A8
:100570000D465D4002D4FFF763FE70BD6340FFF798
:10058000F0FE70BDFF0700000000F0FF0000F07FEC
:100590000000E0FF0000F87FF0B5F94D0C091E09DE
:1005A0002C402E402F468BB0A7437DD0B543FCD0C6
:1005B000002E7AD0002CFCD00D465D40ED0F254377
:1005C000AC1BFF25AD0464190894C502440DC90293
:1005D0002143500DDC0204430120C00701430443C2
:1005E000D2020191200C110C00958C460104234687
:1005F0008B430A9161460904E24D8A430991010A3D
:100600007D4449198039097805464D4301266D1806
:10061000F605751B6943C90C640B891C4C436418AF
:10062000B5012C1B250C2E04B4434C434D43210C27
:10063000691889090591009DE90701D00121C907C1
:1006400004912C4601996708CD072F434C08059D5E
:10065000E10B4D432D0C29466646754302950D4628
:1006600045432E46029D7D1BB44100950D465D43DA
:1006700001942C0C2F040D465543AE462D0C3D43E2
:10068000029503947546049C2D04641B049406D2C1
:10069000029C039D641C002675410395029401ACE5
:1006A00070CC009F7D1B01E03EE162E1B441090492
:1006B0000095079101940599A4086143090C0C4623
:1006C0004443650BE7040C4666467443A646640B38
:1006D0003C43039502947446049DE4042C1B04944B
:1006E00006D2029C039D641C00267541039502946A
:1006F00001AC70CC009F7D1BB44101940C465C435F
:100700000095650FE7000C465443A646640F3C4332
:10071000039502947446049DE4002C1B049406D2B5
:10072000029C039D641C002675410395029401AC54
:1007300070CC009F7D1BB441AE09AF06049DC9007B
:10074000AD092F43049DA406AD060495079D3443CF
:1007500069180791059DE10B4D432D0C294666460E
:10076000754302950D4645432E46029D7D1BB441BF
:1007700000950D465D4301942C0C2F040D46554306
:10078000AE462D0C3D43029503947546049C2D0402
:10079000641B049406D2029C039D641C00267541D0
:1007A0000395029401AC70CC009F7D1BB441019471
:1007B0008C050694079C890A611800950791019C95
:1007C0000599A4086143090C0D464543680BEF04E5
:1007D0000D46644665436C0B3C43049FED047D1B52
:1007E000AC4602D20025641C6841009E019D371B67
:1007F00085410846584301950C46460FC5005443B1
:10080000600F28436546E4002C1B02D20025401CE3
:100810006E41019D3F1AB5412846BD098006284317
:100820008446A009BF064E020699A406761807431F
:10083000079D002068410A99079019430020099BF1
:1008400000906046FF1913434041E20F64003A43B1
:10085000A4460446D71A8C41A04203D90120009037
:1008600020463A46C70F941840416246D20F2243B1
:10087000644664000494009CBE466400D71AA446F3
:10088000044602978C417746002F01D1A04204D93B
:100890006046401C8446029A2046C40FA64694181F
:1008A0004041049A0546D20F224364466400D31A9D
:1008B0008D417146002901D1A84202D928461A4625
:1008C000641C10430122002800D01643610200205E
:1008D000079B891904465C410223002C02DB49185E
:1008E00013466441089DCE0A2D145D194B0567051A
:1008F000E10A2C050D1908993E43C9076940002BF0
:1009000008D0934006D30022761C5141002B01D120
:10091000760876001C4A002D43DB154241D0AA43DD
:100920003FD030460BB0F0BD06180D464D41174C78
:100930007642AC411AD395181C465C41134A6D426D
:10094000A24113D3012252054C00D4420AD15C00CB
:10095000D4420BD04B4002D592021143E2E749004A
:100960004908DFE75940C90FC90718E000200849C6
:10097000D8E7054801420DD10342F7D0F2E7000065
:100980000000FF07482000000000F07F0000E0FFAB
:100990000000F87F114859400143C0124140002037
:1009A000C0E70123089A9B069A4205DC03225207FE
:1009B0008918C90FC907B5E7052252078918074AE0
:1009C0001143D2125140ADE770B515461C460246A0
:1009D0000B4628462146FFF7DFFD70BDFFFFFF7F76
:1009E0001F22030C02D10F22000402D0030E03D0F9
:1009F00004E00020014670470002083A030F01D1CD
:100A00000001121F830F01D18000921E002801DB1C
:100A10004000521E120551184205C01241181046DE
:100A20007047C10FC90700D040420122920711430D
:100A3000D6E701218907D3E7F0B58B4C0F0925468E
:100A400089B0BD437BD01D092646AE43FAD00E4681
:100A50005E402740F60F3E43254071D024012142DD
:100A6000FBD0FF24AD19A4042D1B039501252D05F2
:100A7000DB02DB0AC9022B43C90A29431E01090113
:100A8000040F130F050121431701880B82039143C3
:100A90002D098C46A90B1E438A039543B30B9A0379
:100AA00096433F09BA0B9403A74302962E467E4312
:100AB0000497B6464E19D7190C460196544305972C
:100AC0007E43371B7646BF1B3601B646BE0B361932
:100AD00000967646BC043719009C01D3641C009430
:100AE0006400002F01D001263443029E049F754309
:100AF00066467E430496760034196E0034190094DD
:100B0000029C019E1C196643751BAE460694654601
:100B10004519059C05956C43594375460891691A1A
:100B20000191049E01465143A41B0491611A009C4B
:100B30000791E10605D061090122114302E072E04C
:100B40006EE06109089D00272C0A2D066918049D96
:100B50007C412A0A2D066918019D6241AC0DAD0247
:100B60006D185441079A910D920255196141029AEC
:100B7000644658435443069B059A5A43121A131B62
:100B80009A0E9B015B187A41010B0005C318514175
:100B9000220A200644195A419A4200D2491C0120D7
:100BA0004002814203D315230226F64302E01423B8
:100BB0000326F6432020C51AA9401746AF40DA4065
:100BC0000A4320460399D84009147318190551188F
:100BD000039A3843D2075140AC4009D001229440D7
:100BE00006D30022401C5141002C01D14008400096
:100BF0001E4A934212D3012203989206904207DBC9
:100C00000520400709181A480143C012414004E07A
:100C1000032040070818C10FC907002009B0F0BD24
:100C20000020F107FAE705180C464C4111486D42C7
:100C3000A04115D394181A465A410E486442904177
:100C40000ED301204A004005824209D35A00824255
:100C500006D35940C90F084AC90700201143DDE7F0
:100C600000200649DAE700000000FF07FE07000049
:100C7000FFFFFF7F0000E0FF0000F07F0000F87F33
:100C80000121C9050123411842001B06D3185B0E40
:100C90000AD0C1100722D206891840075242D14219
:100CA00001D5520089187047090208D50146002A6B
:100CB00003D0C10FC9070020704710467047420299
:100CC00002D0002002497047072109050143F4E7DB
:100CD0000000F87FF0B5FF252D04C609C209FF27E3
:100CE00004462E400137CB093E4348402A402B4062
:100CF0000746002A6BD0002B69D0AA4267D0AB42CE
:100D000065D0002800DA32460125ED0529432C4341
:100D100009022002090AD21A4B0C7F24E31A434C21
:100D2000000A7C44E35C7D242404121914145B0043
:100D3000A218884201D3521C00E0400049420C46F0
:100D40005C4324115C43DB016415E318040A5C4333
:100D5000C502200D0C4644436419250A5D43230354
:100D6000EC0C0D46654300030019EB184C42A342FE
:100D700001D35B18401CD4052018002B07D05B0062
:100D8000C91804D3401C002901D1400840003F216C
:100D900089048A4209D3002A08DC1106090F04D00D
:100DA000032149074018C00FC007F0BD01224100D0
:100DB000120689187F2252069142F6D20521490770
:100DC000C84201D59010F0BDFF20C005F0BD002F36
:100DD00000DA32461648AA4207D2AB4205D21902BF
:100DE000090E17D0F80FC007F0BDFF2563002D06D0
:100DF000AB42F9D84900A942F6D8AB4201D1A94289
:100E0000F2D0A94201D1002101E061004908D005DA
:100E10000843F0BD1102090EFBD0FF200243D005AC
:100E2000F0BD0A460146104654E70000A61900002E
:100E30000000C07F10B501469E240002CA15A3071A
:100E4000002A02D01843002A04DBA21A002A0CDD73
:100E5000D04010BD1206120E01D140004008A21A67
:100E600003D4D04040420028F3DDFF2248001206A0
:100E7000904201D9002010BDC817C043584010BD92
:100E80000102C21504D00123DB071943002A0ADB43
:100E90009E239A1A02D40846D0407047FF22410090
:100EA0001206914201D900207047C017C043704715
:100EB0001F22030C02D10F2200041CD0030E01D10B
:100EC0000002083A030F01D10001121F830F01D164
:100ED0008000921E002801DB4000521ED2055118EE
:100EE000021251181922904004D3491C002801D144
:100EF0004908490008467047C10FC90700D0404261
:100F0000012292071143D3E701218907D0E70000AE
:100F100010B5FF231B0644009C421DD84C009C4288
:100F20001AD80346124A0B4307D4401A02D3EFF3F0
:100F3000008010BDEFF3008010BD081A03D3EFF35B
:100F40000080904305E0EFF3008001219043C90742
:100F5000084380F3008810BD0D231B041A4204D0FF
:100F60001146002000F02DF810BD00F041F810BD32
:100F700000000090754600F043F8AE460500694653
:100F80005346C008C000854618B020B5FFF706F9E3
:100F900060BCB64600260027C0C5C0C5C0C5C0C5D8
:100FA000C0C5C0C5C0C5C0C5403D490849008D4643
:100FB000704710B50446C046C0462046FFF7DFF82C
:100FC00010BDC80212D54803400F002804D0C80342
:100FD000C043012188407047EFF300800001000901
:100FE00003210907084380F30088704700207047F9
:100FF00010B5024800F008F810BD00000000C07FE6
:10100000004870473000202010B50C461107090F2A
:10101000092904D00A290AD008290CD104E0114674
:101020000820FFF7CEFF06E0510606D501E0510685
:1010300001D50120C007214610BDD10607D5010109
:101040000909CC084907000E0006044309E0410FD6
:1010500020024907000A0143200E00061D22D1414B
:1010600001430846E7E700000120C0050149086088
:101070007047C04690120A40F0B581B00124A00428
:10108000674F3861E004386019200501654E002281
:101090003046294600F0C8F920053861200638603E
:1010A0001E3530462946224600F0BEF901B0F0BD9B
:1010B000F0B581B00124A004594F3860E0043861D4
:1010C00019200501574E00223046294600F0ACF9A0
:1010D00020053860200638611E35304629462246F4
:1010E00000F0A2F901B0F0BD70B50124A0044C4E8F
:1010F0003061E00430604B4DC8210022284600F0EA
:1011000093F92005306120063060D7204100284641
:10111000224600F089F970BD70B50124A004404E4C
:101120003060E00430613F4DC8210022284600F0C5
:101130007BF92005306020063061D7204100284629
:10114000224600F071F970BD70B50124A004344E40
:101150003061E004306019200101324D0022284640
:1011600000F062F92005306120063060E621284653
:10117000224600F059F970BD70B50124A004284E34
:101180003060E004306119200101264D002228461C
:1011900000F04AF92005306020063061E62128463B
:1011A000224600F041F970BD012081041C4A116003
:1011B000C104116001051160000610607047C0464F
:1011C00070B50124A004164E3060E0043061154D66
:1011D000002128460A4600F027F920053060200645
:1011E0003061D72041002846224600F01DF970BD2D
:1011F00070B50124A0040A4E3060E004306119206B
:101200000101084D0022284600F00EF9200530604B
:10121000200630611E212846224600F005F970BDE7
:1012200090320A4000808640811E091F00BFFCD218
:1012300070470000F0B584B06B4A82180292734B7D
:10124000C618784BC21800922A4BC4180A7901912B
:101250000D68294F202A03920AD0254BC018002A76
:1012600017D16B1E029A536023683B40882517E014
:10127000681E029A506020683840204B1843206056
:101280006068384018436060012045071C4F1046D5
:1012900008E06B08029A536023683B400525ED0186
:1012A0002B432360009903683B402B430360306865
:1012B0004F4B184030607068184070600020086024
:1012C00048608F20C0432369034023616369034062
:1012D00063610198807903990843BD21014010683A
:1012E000084B0340C818801C106004B0F0BDC04615
:1012F000741800007018000024F93FF00104000089
:10130000FFFFFFCF4000FFCF70B5374A82184B6810
:1013100053603E4BC3180878222857D8840001A593
:101320002C59A746C3130000CD130000C3130000BF
:10133000CD130000CD130000CD130000CD1300002D
:10134000CD130000CD130000CD130000CD1300001D
:10135000CD130000CD130000CD130000CD1300000D
:10136000CD130000B1130000CD130000B113000035
:10137000CD130000CD130000CD130000CD130000ED
:10138000CD130000CD130000CD130000CD130000DD
:10139000CD130000CD130000CD130000CD130000CD
:1013A000CD130000B1130000CD130000B1130000F5
:1013B000032424071568A543012464072C1914602D
:1013C00004E0032424071568A54315600C69D46064
:1013D000CC68064D25401C68054E264074191C60DB
:1013E000097A0143116070BD04180000777702008C
:1013F0008888FDFF10B507239B04194092008018D0
:10140000024A84589C436118815010BD3018000076
:1014100010B5029CA400001911431943014A8150E0
:1014200010BDC0465018000092008018014A81503B
:101430007047C0461018000010B50122120383182F
:101440000C789C604B7883508978014A815010BD9C
:101450000C110000B0B51122120283580124A343DD
:1014600083508B780C881C438B882343094C1C4089
:101470008358094D1D402B1983508B79CC791C431F
:10148000097A21437E231940801842689A435118F3
:101490004160B0BD18670000E798FDFF10B501225C
:1014A000120383180C789C604978815010BD0000AD
:1014B000F0B503200002244A114610390E68064098
:1014C000770A01256C020020C14320480346103BE7
:1014D0001B68002F0DD1002E19D03A4D2D68012622
:1014E0002542344600D00C46194D2D68651934024A
:1014F00008E0344E3668F6050E4600D52E46144DEB
:101500002D687519124E35601568254315601A0649
:101510000BD45A0617D52D4A1268120600D40121A1
:101520000C4A12688A18402108E0284A12685206BC
:1015300000D50121074A12688A188021054B1A60DC
:1015400002680A430260F0BD48100A4048300A4071
:10155000900020209400202010B50120820319491A
:101560000B6813405C425C41174AD4710302174C6C
:1015700024681C4063426341937183040C681C40DF
:1015800063426341537143040C681C4063426341EE
:101590001371C3030C681C4063426341137043031F
:1015A0000C681C4063426341537003030C681C4089
:1015B0006342634193700004096801404842484116
:1015C000D07010BD80130A401902202080330A40D9
:1015D0000120C00302490860024908607047C04604
:1015E00080E200E000E100E0012080060749086099
:1015F0007047C04601208006714908607047C046A8
:101600000120C006014908607047C046A0120A4088
:101610000120C0066A4908607047C04670B50D4990
:101620000B781C4A11461031012B154600D00D468F
:101630000124A6042E60012B00D01146E2040A60AA
:10164000FFF71EFC01461E3180480022FFF7ECFE2A
:1016500070BDC0461800202070B50D490B780D4AAA
:1016600011461031012B154600D00D4601242605E8
:101670002E60012B00D0114622060A60FFF700FC05
:1016800001461E3171482246FFF7CEFE70BDC046AE
:101690001900202090320A4080B5104800780328B5
:1016A00012D002280AD0012816D10D480068FFF791
:1016B000C1FB0C49098800F093FD80BD0848016812
:1016C000002000F059FC80BD05480068FFF7B2FB20
:1016D0000146002000F078FD80BDC04618022020A1
:1016E000B4002020B8002020B0B52E4987228A639C
:1016F0002D4804230360CA630822026082220A6024
:101700002A4A4A602A4A8124D4642A4B0B662A4D0D
:1017100055669466294D8D614D614D669462D46223
:1017200094639464CB648B64CB658B6513611360A5
:101730005360D36053619361936003229106204B01
:1017400019610121C90519601921C905196405210B
:101750000B041C4C25681D4325601B4B1C68302561
:1017600025431D6094075D6825435D601202174B99
:101770001C6A14431C621C6814431C600246403AF5
:1017800047239B0413600360080311490A6802435E
:101790000A601048016AC0221143016201681143C6
:1017A0000160B0BD04804240D0320A408200040093
:1017B0008880424081000C008100010081000E0001
:1017C00090120A4090130A4008150A4028100A4057
:1017D00090330A4028300A4070B582B01B4C1C4937
:1017E0002046FFF729FE1B492046FFF723FD1A4834
:1017F00001681A4A0A4002600025009520462946E1
:101800002A462B46FFF704FE204629462A46FFF7C4
:10181000F1FD204629462A46FFF706FE01260096DE
:10182000204629462A462B46FFF7F2FD2046294648
:101830003246FFF7DFFD204629463246FFF7F4FD2A
:10184000074886600321016002B070BD00808640B9
:101850000C27000010270000049886407F00FFFF3F
:10186000009186400F48002101600320C1430E48CB
:101870000246083A13680B40136001680122914345
:101880000160110203688B4303601103001F0268AB
:101890000A430260FF20000204490A6882430A608A
:1018A0007047C04608030B4008010B4000E400E00D
:1018B0000548042101601F21416000218160016809
:1018C00005220A430260704710E000E010B50B4C9F
:1018D0000B492046FFF7B0FD0A492046FFF714FDEB
:1018E00009480168012211430160FF2000041949E1
:1018F0000B6883430B600548026010BD0000864002
:10190000182700001C270000281086400811864078
:1019100010B50C4C0C492046FFF78EFD0B492046B4
:10192000FFF7F2FC0A48016802220A4302600948F4
:10193000016840220A43BF218A4302600648012110
:10194000016010BD0040084030270000342700002F
:101950002850084010E400E00851084010B5154C2C
:1019600015492046FFF79AFD14492046FFF772FDFE
:101970000320C103124802688A4302600169114AC8
:101980000A4011320261416917220A4328218A4321
:1019900042614168012211404368934359184160F4
:1019A0009102094B1C680C431C60016811430160E3
:1019B00010BDC04600801040482700004A270000A4
:1019C000009110400000FFFF2890104080B500F00B
:1019D0001BF8FFF789FEFFF745FFFFF7FDFEFFF756
:1019E00075FFFFF795FFFFF7B9FFFFF761FFB8201D
:1019F000034900220A549C2002490A5480BDC04673
:101A00005C012020BC00202070B50C480C494160CE
:101A10000C4A51600C4B59600C4C61600C4D696074
:101A20000C4E71600C4901601160196021602960E1
:101A300031601020FFF7F8FB70BDC04600080A4077
:101A4000030000B100280A40008886400008864054
:101A500000480840008810400100002680B5054875
:101A60000068000604D0044800F048F9FFF714FEAF
:101A700080BDC04620108640CDCC4C3E80B5084885
:101A8000006800060BD007480078012805D13D48C2
:101A90000078002801D100F05BF800F039F880BD33
:101AA000205008403C02202080B517480068C0B292
:101AB0000B2810D115480068C0B2082809D8C046C4
:101AC000784400794000874404130A0D0716191062
:101AD0001C00FFF769FB80BDFFF736FB80BDFFF7F9
:101AE0004BFB80BDFFF784FB80BDFFF769FB80BD2A
:101AF000FFF7DEFA80BDFFF7BFFA80BDFFF7F4FA0B
:101B000080BDFFF709FB80BD20901040249110405C
:101B1000B0B50A4C207800280FD0094D2888401C09
:101B2000288080B20C2808D3FFF79EFAFFF75CFDEF
:101B3000FFF766FD002020702880B0BD98002020AF
:101B40009A002020704780B5FFF740FF80BD00005D
:101B500010B5FFF74FFD3224204600F015F8FFF7CF
:101B600043FD204600F010F8FFF752FD642000F01E
:101B70000BF8044801210170FFF742FD204600F0F8
:101B800003F810BDBA002020B0B57D210902414301
:101B90000E480368262206E0E41A051F2D68641922
:101BA000A2188A4210D21C460368A34208D10368D7
:101BB000A34205D10368A34202D10368A342F3D034
:101BC0009C42E9D9E41AEBE7B0BDC04618E000E05A
:101BD000E74802210160E74A116001601160704727
:101BE000FFF7B1FFFFF7F4FCFFF7F2FF00F0B0F9E9
:101BF00000F0B6F9FEE7F0B583B00446006861680E
:101C000000F0BCFC0546A060206B00282DD0012808
:101C10004BD1A169284600F059FC0290A062E66809
:101C20002846314600F0AAFC0146606900F04EFCEF
:101C3000019020623046314600F0AEFB0146284656
:101C400000F09CFC216900F0A7FB0146E06900F070
:101C50003DFC074660620198029900F09DFB394601
:101C600000F09AFB0146E06A1BE06169284600F03B
:101C70002DFC02902062A169284600F027FC01900B
:101C8000A062E6682846314600F078FC0146E0692B
:101C900000F01CFC074660620298019900F07CFB92
:101CA000394600F079FBE06200E0E668E560266115
:101CB00003B0F0BDF0B581B00D460446C76A3846A2
:101CC00000F046FB00282E4600D13E460121C90700
:101CD0004D40002807D13046294600F044FB00283B
:101CE00001D001B0F0BD3046294600F047FB002886
:101CF00000D13546E56201B0F0BD0000F0B585B019
:101D000004462F4801682F4A126802602E48036873
:101D100004932E4B1B6803930360501AFFF7ECF8F3
:101D20002B49FEF7D7FFFEF7ABFF2A4A2A4BFEF7F7
:101D300083FE012292070292284BFEF72DFCFEF74C
:101D400041FA06467F20C0050194214600F016FCAA
:101D50000090234D296800F0B9FB07462046314624
:101D600000F0B4FB394600F017FB286069490860B1
:101D700004980399081AFFF7BFF81549FEF7AAFF60
:101D8000FEF77EFF134A144BFEF756FE029A134BE2
:101D9000FEF702FCFEF716FA0446124E3168009870
:101DA00000F094FB05460198214600F08FFB294680
:101DB00000F0F2FA30605E49086005B0F0BDC04640
:101DC0002C0220209000202030022020940020208F
:101DD00000803644C598CF3C5723CA3FE17A843F00
:101DE0003402202038022020F0B581B00091064650
:101DF000C01731464140081A052800D20026454840
:101E00000068FFF717F8301AFFF776F805464248E2
:101E100001680560284600F0B1FB07463F480068AE
:101E2000294600F053FB05463D480068394600F05E
:101E30004DFB294600F0B0FA01463A4C206800F00C
:101E4000ABFA05462060384F394600F081FA002889
:101E500006D1364F2846394600F085FA002801D1D0
:101E600027603D4632480068FEF7E4FF301AFFF76E
:101E700043F806462F4801680660304600F07EFBB6
:101E800007462D480068314600F020FB06462B48E7
:101E90000068394600F01AFB314600F07DFA014631
:101EA000274C206800F078FA064620601E4F39461D
:101EB00000F04EFA002806D11C4F3046394600F09B
:101EC00052FA002801D127603E463046FEF7B2FFA5
:101ED0000124002700994618002E204600DA3846D3
:101EE000184908702846FEF7A5FF0099081A00282F
:101EF00000DA3C4614490C70FEF7FEFF134C2040FC
:101F0000FFF78CFB3046FEF7F7FF2040FFF7A4FBFE
:101F100001B0F0BD24022020A80020209C00202039
:101F200000002020A400202000809844008098C455
:101F300028022020B0002020A00020200400202023
:101F4000AC0020201900202018002020FFFFFF7F78
:101F50000120800406490860064908607047C046B1
:101F60000120000402490860024908607047C04629
:101F700080E200E000E100E0F0B589B0089104469D
:101F8000FFF7EAFA464804608B48C7788578E91974
:101F90004678891902780292891802790392891881
:101FA000427904928918827905928918C07906903D
:101FB00008180790FEF7A0FF01903846FEF7A4FF2F
:101FC00007462846FEF7A0FF01467C4CA06800F0BB
:101FD0007DFA0546E168384600F078FA294600F0B7
:101FE000DBF905463046FEF78FFF616800F06EFAB8
:101FF000294600F0D1F905460298FEF785FF2168D1
:1020000000F064FA294600F0C7F904460398FEF789
:102010007BFF6B4D296800F059FA214600F0BCF9AE
:1020200004460498FEF770FF696800F04FFA2146F5
:1020300000F0B2F904460598FEF766FFA96800F0C3
:1020400045FA214600F0A8F904460698FEF75CFF21
:10205000E96800F03BFA214600F09EF90799002953
:1020600001D0019901E07F21C905FEF733FE0C4D37
:1020700068602846FFF7BFFD52492846FFF71AFE61
:10208000E96A089C204600F079FAFFF7C7FAE86A87
:10209000214600F081F9FFF7DFFA09B0F0BDC04634
:1020A00040022020F0B587B00446FFF755FA4148BA
:1020B00004604148C6788578A919447809190278DE
:1020C000019289180279029289184279039289183B
:1020D000827904928918C079059008180690FEF755
:1020E0000BFF00903046FEF70FFF06462846FEF72E
:1020F0000BFF0146314FB86800F0E8F90546F96872
:10210000304600F0E3F9294600F046F9054620463E
:10211000FEF7FAFE796800F0D9F9294600F03CF99B
:1021200004460198FEF7F0FE396800F0CFF9214629
:1021300000F032F904460298FEF7E6FE204D2968C9
:1021400000F0C4F9214600F027F904460398FEF791
:10215000DBFE696800F0BAF9214600F01DF904467B
:102160000498FEF7D1FEA96800F0B0F9214600F00E
:1021700013F904460598FEF7C7FEE96800F0A6F9D2
:10218000214600F009F90699002901D0009901E0E3
:102190007F21C905FEF79EFD064C60602046FFF7D3
:1021A0002AFD08492046FFF785FDE06AFEF742FE5A
:1021B00007B0F0BD74022020190220200800202062
:1021C0001C00202000007A44B0B50C460546FFF7FD
:1021D000C3F92846FFF766FF2146FFF705FEB0BDAD
:1021E000F0B581B0009106464B480068FEF722FE2C
:1021F000301AFEF781FE054648480168056028460A
:1022000000F0BCF9074646480068294600F05EF930
:10221000054644480068394600F058F9294600F060
:10222000BBF80146404C206800F0B6F80546206037
:102230003E4F394600F08CF8002806D13C4F284626
:10224000394600F090F8002801D127603D46394812
:102250000068FEF7EFFD301AFEF74EFE06463648E0
:1022600001680660304600F089F907463348006887
:10227000314600F02BF9064631480068394600F037
:1022800025F9314600F088F801462E4C206800F010
:1022900083F806462060254F394600F059F800289B
:1022A00006D1234F3046394600F05DF8002801D1B1
:1022B00027603E463046FEF7BDFD06460124002756
:1022C0000028204600DC38461F4908702846FEF7E3
:1022D000B1FD0028204600DC38461C49087038460D
:1022E000FFF79CF93046FEF707FE05460098FEF71B
:1022F00098FB07460E46E00785432846FEF7C0FCDC
:1023000002460B4638463146FEF716F9FDF75AFFEE
:10231000FFF7A2F901B0F0BD24022020A800202080
:102320009C00202000002020A40020200080984451
:10233000008098C428022020B0002020A000202087
:1023400004002020AC0020201900202018002020AC
:1023500010B500F067F8EFF30080800001D5012090
:1023600010BD002010BD10B500F05CF8EFF3008048
:102370004000800F012800D0002010BD10B500F0F3
:102380007BF8EFF300804000800F012801D001208E
:1023900010BD002010BD000070B50125ED07040040
:1023A0004C4020D4441A01D2001B0919C60D4B0021
:1023B000F2B2FF2A29D01B0E2CD000020C022843B7
:1023C0002C43D31ADC40051910D2280A02D3401C32
:1023D0006D0611D0761EF6058019FF2A00DA70BD51
:1023E000C00DC00570BD694000F0CEF80120054366
:1023F000C541521C761CE8E764089C40C901614055
:102400008900E7D10124A043E4E71B0E440200D079
:10241000034870BD002AFCD1C00FC00770BD00BFCB
:102420000000C07F0123DB0502000A430DD4DA421D
:1024300003D49A4207D488427047D84214D4D94270
:1024400012D48842704780427047DA4203D59A42DC
:10245000F9D5814270475B004200DA4204D24A005B
:10246000DA4201D28142704710B5024AFEF750FDB0
:1024700010BD00BF090013040123DB0502000A435D
:102480000DD4DA4203D49A4207D488427047D84226
:1024900014D4D94212D48842704780427047DA423D
:1024A00003D59A42F9D5814270475B004200DA4277
:1024B00004D24A00DA4201D28142704710B5024A82
:1024C000FEF726FD10BD00BF0900160470B54200DE
:1024D00064414B005C41120E39D01B0E38D0FF2AEC
:1024E0003CD0FF2B3AD0D2187F3A40024902400A32
:1024F000490A4518ED0106004E43000A090A4843FF
:102500000104731A4019190C4318990F04D05B0881
:10251000012149075B1A521CD80904D3401CF5035A
:1025200001D19D0607D0FF2A08D2D50506D0E407C1
:102530002043401970BD0125A843F4E7002A01DCBF
:10254000E00770BD2402FF202043C00570BD1B0EB4
:10255000FF2A03D0FF2B01D0E00770BDFF2636060F
:102560004500B54206D84D00B54203D8D218FF2A1F
:1025700000D0E7E7004870BD0000C07F70B50125BE
:10258000ED0704004C4022D4441A02D26C40001BD8
:102590000919C60D4B00F2B2FF2A4BD01B0E50D0CA
:1025A00000020C02A8432C43D31ADC40051B05D5BE
:1025B000AD0019D36D08761E521E37D0F605280AD5
:1025C00001D2801970BD70416D0603D070BD6940A5
:1025D000FFF7E8FE9C4009026140490001D0401E1F
:1025E00070BD0124A04370BD6D081DD001202B0CCF
:1025F00001D12D0410302B0E01D12D0208302B0FEC
:1026000001D12D01001DAB0F01D1AD00801CEB0FDE
:1026100001D16D00401C361A121A6D00680AF505CA
:102620004019012A02DB70BD002070BDC036300A9F
:10263000C00770BD1B0E440201D1FF2B00D1024820
:1026400070BD002AF0D070BD0000C07F80807F7E0A
:102650007D7C7B7A79787776767574737271717018
:102660006F6E6E6D6C6C6B6A6A69686867666665CA
:102670006464636362616160605F5F5E5E5D5D5C58
:102680005C5B5B5A5A5959585857575656555555C9
:102690005454535352525251515050504F4F4F4E29
:1026A0004E4D4D4D4C4C4C4B4B4B4A4A4A49494977
:1026B00048484847474747464646454545444444B9
:1026C00044434343434242424241414181828384E5
:1026D00085868788898B8C8D8E8F9192939596971E
:1026E000999A9C9D9FA0A2A3A5A7A8AAACAEB0B2A0
:1026F000B3B5B7B9BCBEC0C2C5C7C9CCCED1D4D79B
:10270000D9DCDFE2E6E9ECF0F3F7FAFE08070300B4
:10271000E803000020000100080763000200000039
:102720008F01000001000000000000000000000018
:1027300008076300020000008F0100000100000094
:102740000000000000000000080000001800000069
:10275000003000000000000078270000000020206A
:102760003000000020010000A827000030002020D9
:1027700078160000480100006666F6400000F04050
:10278000000080BF000000C0000040C0000080C00A
:10279000010100000000803F0000004000004040B8
:0827A000000080400000000071
:04000005000000C136
:00000001FF
